:100100003E0032EB07217A01CDFB052148081100A2
:1001100020CDD60521480822EC073E0032EB07CD62
:100120007F0521F8070E50CD090621F8070E50CDA6
:100130001B0621F8077EFE00CA7401FE71CA00008A
:10014000FE61CAEF02FE70CA1104FE73CA6804FEA3
:100150006CCAF004FE68CAA801FE63CADA02FE6433
:10016000CA4B03FE74CAC40221A201CDFB05CDEB2C
:1001700005C31A01CDEB05C31A01456469746F729A
:100180002056310D0A507265737320276827206648
:100190006F7220636F6D6D616E64206C6973740D96
:1001A0000A000D0A45483F00CDEB0521B401CDFB07
:1001B00005C31A01636F6D6D616E64733A0D0A2099
:1001C00061202D20617070656E64207465787420E4
:1001D000746F206275666665720D0A2070202D208E
:1001E0007072696E74206275666665720D0A2071A0
:1001F000202D20717569742065640D0A2073202DEF
:1002000020736176652062756666657220746F2062
:100210006469736B0D0A206C202D206C6F61642063
:1002200061206469736B2066696C6520746F20625D
:1002300075666665720D0A2063202D20636C65610A
:1002400072206275666665720D0A2068202D206432
:100250006973706C61792074686973206C69737458
:100260000D0A202A78202D20657869742065642085
:1002700077697468207465737420666F7220736187
:1002800076650D0A2064202D2064656C65746520F8
:1002900061206C696E650D0A202A72202D2072651E
:1002A000706C6163652061206C696E650D0A202A9F
:1002B00069202D20696E736572742061206C696EEF
:1002C000650D0A00CDEB053E00F5CDA706CDEB058B
:1002D000F13CFE64C2C902C31A0121480811002082
:1002E000CDD60521480822EC07CDEB05C31A01CD78
:1002F000EB053E0132EB07CD7F0521F8070E50CD0F
:10030000090621F8070E50CD1B06FE1BCA4003212B
:10031000F8077EFE2EC22003237EFE78CA40032B00
:100320002AEC0711F8071AFE00C23A033E0D7723A4
:100330003E0A772322EC07C3EF02772313C3260379
:100340003E0032EB07CDEB05C31A0123FE20CA4B5A
:1003500003FE09CA4B03FE00CAEE03FE0A3FD2EEBB
:1003600003EBCDEC0622F00721010022EE07214825
:100370000822F2077EFE0ACA8303FE00CAEE0323A8
:10038000C3740322F4072AF407EB2AF2077B956F64
:100390007A9C6722F6072AF007EB2AEE077CBAC29E
:1003A000AA037DBBC2AA03C3BB032AEE072322EE26
:1003B000072AF4072322F207C374032AEC07EB2A67
:1003C000F2077B956F7A9C67444D2AF207EB2AF47B
:1003D00007233E00CDCB052AEC07EB2AF6077B95D9
:1003E0006F7A9C672B22EC07CDEB05C31A0121F72E
:1003F00003CDFB05C31A01426164204C696E652080
:100400006F72204C696E65204E756D6265720D0AC3
:1004100000CDEB0521010022EE07CD1107EBCDFB4E
:10042000053E3ACDF805CDF8052148087EFE00CA04
:100430006204FE0DC25A04CDEB0523237EFE00CAE2
:100440006204E52AEE072322EE07CD1107EBCDFB70
:1004500005E13E3ACDF805CDF8057ECDF80523C37C
:100460002C04CDEB05C31A01CDEB0521CB04CDFB4C
:100470000521F8070E50CD090621F8070E50CD1BB7
:1004800006115D0021F8077EFE2ECA930412231385
:10049000C38704231165007EFE00CAA30412231340
:1004A000C397041148082AEC07D3F83A8400FE00E9
:1004B000C2BF04CDEB0521D604CDFB05C31A01CD87
:1004C000EB0521E304CDFB05C31A0146696C656E9B
:1004D000616D653A200046696C65205361766564FC
:1004E0000D0A0053617665204572726F720D0A0025
:1004F000CDEB05217405CDFB0521F8070E50CD0984
:100500000621F8070E50CD1B06115D0021F8077E6D
:10051000FE2ECA1B05122313C30F05231165007E8F
:10052000FE00CA2B05122313C31F05214808DBF860
:100530003A8400FE00C2470522EC07CDEB05216698
:1005400005CDFB05C31A01CDEB05215305CDFB05F8
:10055000C31A0146696C65204C6F6164204661696D
:100560006C65640D0A0046696C65204C6F616465BA
:10057000640D0A0046696C656E616D653A2000F590
:10058000E53AEB07FE00C2920521B105CDFB05E17E
:10059000F1C9FE01C2A00521B505CDFB05E1F1C9F8
:1005A000FE02C2AE0521B805CDFB05E1F1C9E1F1BE
:1005B000C965643E00613E00693E00FE00CACB058D
:1005C0007E121B2B0B78B1C2C005C97E1213230B00
:1005D00078B1C2CB05C93E0077231DC2D8053E00C5
:1005E000BACAEA053E0015C2D805C9F53E0DCDF8D8
:1005F000053E0ACDF805F1C9D300C97EFE00C8FE4C
:1006000024C8CDF80523C3FB053E00770DB9C823E8
:10061000C30906DB00FEFEC0C31306CD1306FE08A9
:10062000C240063E50B9CA1B062B3E00770C3E085E
:10063000CDF8053E20CDF8053E08CDF805C31B06D4
:10064000FE15C2670621F8070E50CD090621F807EE
:100650000E503E5ECDF8053E55CDF805CDEB053E7E
:100660003ECDF805C31B06FE03C2810621F8070E26
:1006700050CD09063E5ECDF8053E43CDF805C300DA
:1006800000FE1BC8CDF805FE0DC877230D79FE00CE
:10069000C21B060C2BC31B060E08297C90DAA2068F
:1006A000672C0DC29A06C9F5C5D5E56F2600060A66
:1006B000CD98067DC630CDF8057CC630CDF805E175
:1006C000D1C1F1C921CB06CDFB05C94F7665726654
:1006D0006C6F77204572726F7220696E206D617445
:1006E0006820726F7574696E650D0A001A13FE201A
:1006F000CAEC061B2100001AD6304FF8FE0AF0D5CE
:10070000110A00CD4B07160059CDDC07D113C3F7F2
:1007100006C5D5E50E00D5D5110A00CD6E077BC6FE
:1007200030D112130C7CB5C2170797120C1BE1C510
:100730000D461A777812231B79D602CA4507DA4587
:10074000074FC33107C179E1D1C1C9D5AF84CA57B9
:1007500007AF82C4C406EB7D210000373F1FD2657E
:100760000719DCC406EB29EBB7C25B07D1C9C57A10
:10077000B7C283077BB7CCC406FE01CABF07FE021F
:10078000CAC4074D44210000E52C7A17DAA50729D1
:10079000EB29EB7995789CD28A07CDD307CABA07A3
:1007A000EBCDD307EB7993789ADA9A0779934F7860
:1007B0009A47EBE319E3EBC39A07E15950C1C9111A
:1007C0000000C1C9AF7C1F677D1F6F1100007B1740
:1007D0005FC1C9AF7C1F677D1F6FB4C919DCC40638
:1007E000C97D936F7C9A67DCC406C90000000000D5
:1007F00000000000000000000000000000000000F9
:1008000000000000000000000000000000000000E8
:1008100000000000000000000000000000000000D8
:1008200000000000000000000000000000000000C8
:00000001FF
