:100100003E00320607217501CD1605215B0711005F
:1001100020CDEB02215B072207073E00320607CD08
:10012000CA04210B070E50CD2405210B070E50CD1C
:100130003605210B077EFE00CA6F01FE71CA000062
:10014000FE61CA0003FE70CA5C03FE73CAB303FEFD
:100150006CCA3B04FE68CAA301FE63CAD602FE74E1
:10016000CAC002219D01CD1605CD0605C31A01CDD9
:100170000605C31A01456469746F722056310D0A71
:1001800050726573732027682720666F7220636F33
:100190006D6D616E64206C6973740D0A000D0A4503
:1001A000483F00CD060521AF01CD1605C31A0163F6
:1001B0006F6D6D616E64733A0D0A2061202D2061B0
:1001C0007070656E64207465787420746F20627539
:1001D000666665720D0A2070202D207072696E743B
:1001E000206275666665720D0A2071202D2071757A
:1001F00069742065640D0A2073202D207361766573
:100200002062756666657220746F206469736B0D79
:100210000A206C202D206C6F61642061206469735A
:100220006B2066696C6520746F2062756666657206
:100230000D0A2063202D20636C6561722062756653
:100240006665720D0A2068202D20646973706C61E8
:10025000792074686973206C6973740D0A202A7898
:10026000202D206578697420656420776974682082
:100270007465737420666F7220736176650D0A2051
:100280002A64202D2064656C6574652061206C698A
:100290006E650D0A202A72202D207265706C6163D4
:1002A000652061206C696E650D0A202A69202D2069
:1002B000696E736572742061206C696E650D0A0049
:1002C000CD06053E00F5CDC205CD0605F13CFE6428
:1002D000C2C502C31A01215B07110020CDEB022128
:1002E0005B07220707CD0605C31A013E0077231DD1
:1002F000C2ED023E00BACAFF023E0015C2ED02C9BD
:10030000CD06053E01320607CDCA04210B070E506B
:10031000CD2405210B070E50CD3605FE1BCA510317
:10032000210B077EFE2EC23103237EFE78CA5103C5
:100330002B2A0707110B071AFE00C24B033E0D774D
:10034000233E0A7723220707C30003772313C3370B
:10035000033E00320607CD0605C31A01CD0605216E
:100360000100220907CD2C06EBCD16053E3ACD1330
:1003700005CD1305215B077EFE00CAAD03FE0DC24D
:10038000A503CD060523237EFE00CAAD03E52A0999
:100390000723220907CD2C06EBCD1605E13E3ACD09
:1003A0001305CD13057ECD130523C37703CD0605B5
:1003B000C31A01CD0605211604CD1605210B070E23
:1003C00050CD2405210B070E50CD3605115D0021BF
:1003D0000B077EFE2ECADE03122313C3D2032311A2
:1003E00065007EFE00CAEE03122313C3E203115B15
:1003F000072A0707D3F83A8400FE00C20A04CD0694
:1004000005212104CD1605C31A01CD0605212E04B0
:10041000CD1605C31A0146696C656E616D653A209B
:100420000046696C652053617665640D0A0053616E
:100430007665204572726F720D0A00CD060521BFE8
:1004400004CD1605210B070E50CD2405210B070EF8
:1004500050CD3605115D00210B077EFE2ECA6604C5
:10046000122313C35A04231165007EFE00CA7604CA
:10047000122313C36A04215B07DBF83A8400FE00F1
:10048000C29204220707CD060521B104CD1605C38B
:100490001A01CD0605219E04CD1605C31A01466931
:1004A0006C65204C6F6164204661696C65640D0A5F
:1004B0000046696C65204C6F616465640D0A0046F6
:1004C000696C656E616D653A2000F5E53A0607FED8
:1004D00000C2DD0421FC04CD1605E1F1C9FE01C214
:1004E000EB04210005CD1605E1F1C9FE02C2F904B5
:1004F000210305CD1605E1F1C9E1F1C965643E00AE
:10050000613E00693E00F53E0DCD13053E0ACD1358
:1005100005F1C9D300C97EFE00C8FE24C8CD13056D
:1005200023C316053E00770DB9C823C32405DB009D
:10053000FEFEC0C32E05CD2E05FE08C25B053E5053
:10054000B9CA36052B3E00770C3E08CD13053E2078
:10055000CD13053E08CD1305C33605FE15C2820531
:10056000210B070E50CD2405210B070E503E5ECD0A
:1005700013053E55CD1305CD06053E3ECD1305C3EF
:100580003605FE03C29C05210B070E50CD24053E07
:100590005ECD13053E43CD1305C30000FE1BC8CD41
:1005A0001305FE0DC877230D79FE00C236050C2B0E
:1005B000C336050E08297C90DABD05672C0DC2B53F
:1005C00005C9F5C5D5E56F2600060ACDB3057DC67C
:1005D00030CD13057CC630CD1305E1D1C1F1C92161
:1005E000E605CD1605C94F766572666C6F772045B6
:1005F00072726F7220696E206D61746820726F75FF
:1006000074696E650D0A001A13FE20CA07061B21C5
:1006100000001AD6304FF8FE0AF0D5110A00CD6658
:1006200006160059CDF706D113C31206C5D5E50E3F
:1006300000D5D5110A00CD89067BC630D112130C26
:100640007CB5C2320697120C1BE1C50D461A7778AD
:1006500012231B79D602CA6006DA60064FC34C0625
:10066000C179E1D1C1C9D5AF84CA7206AF82C4DFF6
:1006700005EB7D210000373F1FD2800619DCDF0526
:10068000EB29EBB7C27606D1C9C57AB7C29E067B05
:10069000B7CCDF05FE01CADA06FE02CADF064D440A
:1006A000210000E52C7A17DAC00629EB29EB7995B1
:1006B000789CD2A506CDEE06CAD506EBCDEE06EBAC
:1006C0007993789ADAB50679934F789A47EBE319DC
:1006D000E3EBC3B506E15950C1C9110000C1C9AF70
:1006E0007C1F677D1F6F1100007B175FC1C9AF7C46
:1006F0001F677D1F6FB4C919DCDF05C97D936F7C4F
:100700009A67DCDF05C9000000000000000000005F
:1007100000000000000000000000000000000000D9
:1007200000000000000000000000000000000000C9
:1007300000000000000000000000000000000000B9
:1007400000000000000000000000000000000000A9
:00000001FF
